{
  "_format": "hh-sol-artifact-1",
  "contractName": "LabelFactory",
  "sourceName": "contracts/LabelFactory.sol",
  "abi": [
    {
      "inputs": [],
      "stateMutability": "nonpayable",
      "type": "constructor"
    },
    {
      "inputs": [],
      "name": "InvalidInitialization",
      "type": "error"
    },
    {
      "inputs": [],
      "name": "NotInitializing",
      "type": "error"
    },
    {
      "inputs": [
        {
          "internalType": "address",
          "name": "owner",
          "type": "address"
        }
      ],
      "name": "OwnableInvalidOwner",
      "type": "error"
    },
    {
      "inputs": [
        {
          "internalType": "address",
          "name": "account",
          "type": "address"
        }
      ],
      "name": "OwnableUnauthorizedAccount",
      "type": "error"
    },
    {
      "anonymous": false,
      "inputs": [
        {
          "indexed": false,
          "internalType": "uint64",
          "name": "version",
          "type": "uint64"
        }
      ],
      "name": "Initialized",
      "type": "event"
    },
    {
      "anonymous": false,
      "inputs": [
        {
          "indexed": true,
          "internalType": "address",
          "name": "creator",
          "type": "address"
        },
        {
          "indexed": true,
          "internalType": "string",
          "name": "platform",
          "type": "string"
        },
        {
          "indexed": true,
          "internalType": "string",
          "name": "account",
          "type": "string"
        },
        {
          "indexed": false,
          "internalType": "string",
          "name": "labelName",
          "type": "string"
        },
        {
          "indexed": false,
          "internalType": "address",
          "name": "labelAddress",
          "type": "address"
        }
      ],
      "name": "LabelCreated",
      "type": "event"
    },
    {
      "anonymous": false,
      "inputs": [
        {
          "indexed": false,
          "internalType": "string",
          "name": "platform",
          "type": "string"
        },
        {
          "indexed": false,
          "internalType": "string",
          "name": "account",
          "type": "string"
        },
        {
          "indexed": false,
          "internalType": "string",
          "name": "labelName",
          "type": "string"
        },
        {
          "indexed": false,
          "internalType": "address",
          "name": "labelAddress",
          "type": "address"
        }
      ],
      "name": "LabelRemoved",
      "type": "event"
    },
    {
      "anonymous": false,
      "inputs": [
        {
          "indexed": true,
          "internalType": "address",
          "name": "previousOwner",
          "type": "address"
        },
        {
          "indexed": true,
          "internalType": "address",
          "name": "newOwner",
          "type": "address"
        }
      ],
      "name": "OwnershipTransferred",
      "type": "event"
    },
    {
      "anonymous": false,
      "inputs": [
        {
          "indexed": false,
          "internalType": "string",
          "name": "platform",
          "type": "string"
        }
      ],
      "name": "PlatformAdded",
      "type": "event"
    },
    {
      "anonymous": false,
      "inputs": [
        {
          "indexed": false,
          "internalType": "string",
          "name": "platform",
          "type": "string"
        }
      ],
      "name": "PlatformRemoved",
      "type": "event"
    },
    {
      "inputs": [
        {
          "internalType": "bytes32",
          "name": "",
          "type": "bytes32"
        },
        {
          "internalType": "bytes32",
          "name": "",
          "type": "bytes32"
        },
        {
          "internalType": "uint256",
          "name": "",
          "type": "uint256"
        }
      ],
      "name": "accountToLabels",
      "outputs": [
        {
          "internalType": "address",
          "name": "",
          "type": "address"
        }
      ],
      "stateMutability": "view",
      "type": "function"
    },
    {
      "inputs": [
        {
          "internalType": "string",
          "name": "platform",
          "type": "string"
        }
      ],
      "name": "addPlatform",
      "outputs": [],
      "stateMutability": "nonpayable",
      "type": "function"
    },
    {
      "inputs": [
        {
          "internalType": "string",
          "name": "platform",
          "type": "string"
        },
        {
          "internalType": "string",
          "name": "account",
          "type": "string"
        },
        {
          "internalType": "string",
          "name": "labelName",
          "type": "string"
        }
      ],
      "name": "createLabel",
      "outputs": [
        {
          "internalType": "address",
          "name": "",
          "type": "address"
        }
      ],
      "stateMutability": "nonpayable",
      "type": "function"
    },
    {
      "inputs": [
        {
          "internalType": "string",
          "name": "platform",
          "type": "string"
        },
        {
          "internalType": "string",
          "name": "account",
          "type": "string"
        }
      ],
      "name": "getLabelsByPlatformAndAccount",
      "outputs": [
        {
          "internalType": "address[]",
          "name": "",
          "type": "address[]"
        }
      ],
      "stateMutability": "view",
      "type": "function"
    },
    {
      "inputs": [
        {
          "internalType": "address",
          "name": "initialOwner",
          "type": "address"
        }
      ],
      "name": "initialize",
      "outputs": [],
      "stateMutability": "nonpayable",
      "type": "function"
    },
    {
      "inputs": [
        {
          "internalType": "string",
          "name": "",
          "type": "string"
        }
      ],
      "name": "isPlatformSupported",
      "outputs": [
        {
          "internalType": "bool",
          "name": "",
          "type": "bool"
        }
      ],
      "stateMutability": "view",
      "type": "function"
    },
    {
      "inputs": [],
      "name": "owner",
      "outputs": [
        {
          "internalType": "address",
          "name": "",
          "type": "address"
        }
      ],
      "stateMutability": "view",
      "type": "function"
    },
    {
      "inputs": [
        {
          "internalType": "uint256",
          "name": "",
          "type": "uint256"
        }
      ],
      "name": "platforms",
      "outputs": [
        {
          "internalType": "string",
          "name": "",
          "type": "string"
        }
      ],
      "stateMutability": "view",
      "type": "function"
    },
    {
      "inputs": [
        {
          "internalType": "string",
          "name": "platform",
          "type": "string"
        },
        {
          "internalType": "string",
          "name": "account",
          "type": "string"
        },
        {
          "internalType": "string",
          "name": "labelName",
          "type": "string"
        }
      ],
      "name": "removeLabel",
      "outputs": [],
      "stateMutability": "nonpayable",
      "type": "function"
    },
    {
      "inputs": [
        {
          "internalType": "string",
          "name": "platform",
          "type": "string"
        }
      ],
      "name": "removePlatform",
      "outputs": [],
      "stateMutability": "nonpayable",
      "type": "function"
    },
    {
      "inputs": [],
      "name": "renounceOwnership",
      "outputs": [],
      "stateMutability": "nonpayable",
      "type": "function"
    },
    {
      "inputs": [
        {
          "internalType": "address",
          "name": "newOwner",
          "type": "address"
        }
      ],
      "name": "transferOwnership",
      "outputs": [],
      "stateMutability": "nonpayable",
      "type": "function"
    },
    {
      "inputs": [],
      "name": "version",
      "outputs": [
        {
          "internalType": "string",
          "name": "",
          "type": "string"
        }
      ],
      "stateMutability": "pure",
      "type": "function"
    }
  ],
  "bytecode": "0x608060405234801561001057600080fd5b5061001961001e565b6100d0565b7ff0c57e16840df040f15088dc2f81fe391c3923bec73e23a9662efc9c229c6a00805468010000000000000000900460ff161561006e5760405163f92ee8a960e01b815260040160405180910390fd5b80546001600160401b03908116146100cd5780546001600160401b0319166001600160401b0390811782556040519081527fc7f505b2f371ae2175ee4913f4499e1f2633a7b5936321eed1cdaeb6115181d29060200160405180910390a15b50565b613db7806100df6000396000f3fe60806040523480156200001157600080fd5b5060043610620000e05760003560e01c8063bca1210b1162000097578063e6cbc2a5116200006e578063e6cbc2a51462000204578063f2fde38b146200021b578063faa992d31462000232578063faca692a146200024957600080fd5b8063bca1210b14620001bf578063c247b39214620001d6578063c4d66de814620001ed57600080fd5b806327c2ef7e14620000e557806354fd4d501462000119578063715018a6146200014557806376487f5414620001515780638a8db0d714620001685780638da5cb5b146200018e575b600080fd5b620000fc620000f63660046200127e565b6200028b565b6040516001600160a01b0390911681526020015b60405180910390f35b6040805180820190915260058152640312e302e360dc1b60208201525b604051620001109190620012ff565b6200014f620002d1565b005b6200014f62000162366004620013ec565b620002e9565b6200017f620001793660046200142d565b62000415565b60405162000110919062001498565b7f9016d09d72d40fdae2fd8ceac6b6234c7706214fd39c1cd1e609a0528c199300546001600160a01b0316620000fc565b6200014f620001d0366004620014e7565b620004e4565b6200014f620001e7366004620013ec565b620008a5565b6200014f620001fe36600462001579565b62000abe565b620000fc62000215366004620014e7565b62000bd6565b6200014f6200022c36600462001579565b62000fe5565b6200013662000243366004620015a4565b62001029565b6200027a6200025a366004620013ec565b805160208183018101805160018252928201919093012091525460ff1681565b604051901515815260200162000110565b60026020528260005260406000206020528160005260406000208181548110620002b457600080fd5b6000918252602090912001546001600160a01b0316925083915050565b620002db620010de565b620002e760006200113c565b565b620002f3620010de565b600181604051620003059190620015be565b9081526040519081900360200190205460ff16156200036b5760405162461bcd60e51b815260206004820152601760248201527f506c6174666f726d20616c72656164792065786973747300000000000000000060448201526064015b60405180910390fd5b600080546001810182559080527f290decd9548b62a8d60345a988386fc84ba6bc95484008f6362f93160ef3e56301620003a6828262001664565b5060018082604051620003ba9190620015be565b908152604051908190036020018120805492151560ff19909316929092179091557f39c39cf7ac9734eb147d1c97af14e25496dca114c888b83afbe570f2f7f5d2ff906200040a908390620012ff565b60405180910390a150565b60606000836040516020016200042c9190620015be565b604051602081830303815290604052805190602001209050600083604051602001620004599190620015be565b60408051601f19818403018152828252805160209182012060008681526002835283812082825283528390208054808402860184019094528385529094509190830182828015620004d457602002820191906000526020600020905b81546001600160a01b03168152600190910190602001808311620004b5575b5050505050925050505b92915050565b620004ee620010de565b600083604051602001620005039190620015be565b6040516020818303038152906040528051906020012090506001846040516200052d9190620015be565b9081526040519081900360200190205460ff16620005875760405162461bcd60e51b8152602060048201526016602482015275141b185d199bdc9b481b9bdd081cdd5c1c1bdc9d195960521b604482015260640162000362565b6000836040516020016200059c9190620015be565b604051602081830303815290604052805190602001209050600083604051602001620005c99190620015be565b60408051601f198184030181529181528151602092830120600086815260028452828120868252909352908220909250905b8154811015620008645760008282815481106200061c576200061c62001731565b9060005260206000200160009054906101000a90046001600160a01b031690506000806000836001600160a01b0316635a9b0b896040518163ffffffff1660e01b8152600401600060405180830381865afa15801562000680573d6000803e3d6000fd5b505050506040513d6000823e601f3d908101601f19168201604052620006aa919081019062001793565b509250925092508883604051602001620006c59190620015be565b604051602081830303815290604052805190602001201480156200071057508782604051602001620006f89190620015be565b60405160208183030381529060405280519060200120145b801562000744575086816040516020016200072c9190620015be565b60405160208183030381529060405280519060200120145b156200085357855486906200075c906001906200184d565b815481106200076f576200076f62001731565b9060005260206000200160009054906101000a90046001600160a01b0316868681548110620007a257620007a262001731565b9060005260206000200160006101000a8154816001600160a01b0302191690836001600160a01b0316021790555085805480620007e357620007e36200186f565b600082815260209020810160001990810180546001600160a01b03191690550190556040517f77149c0493b74d84659c0a3407259b43b3491e8a890e3b880b2eb0f231660795906200083d908e908e908e90899062001885565b60405180910390a1505050505050505050505050565b505060019092019150620005fb9050565b5060405162461bcd60e51b815260206004820152600f60248201526e131858995b081b9bdd08199bdd5b99608a1b604482015260640162000362565b505050565b620008af620010de565b600081604051602001620008c49190620015be565b604051602081830303815290604052805190602001209050600182604051620008ee9190620015be565b9081526040519081900360200190205460ff166200094f5760405162461bcd60e51b815260206004820152601760248201527f506c6174666f726d20646f6573206e6f74206578697374000000000000000000604482015260640162000362565b60005b60005481101562000a4d57816000828154811062000974576200097462001731565b90600052602060002001604051602001620009909190620018de565b604051602081830303815290604052805190602001200362000a445760008054620009be906001906200184d565b81548110620009d157620009d162001731565b9060005260206000200160008281548110620009f157620009f162001731565b90600052602060002001908162000a0991906200195c565b50600080548062000a1e5762000a1e6200186f565b60019003818190600052602060002001600062000a3c919062001216565b905562000a4d565b60010162000952565b50600060018360405162000a629190620015be565b908152604051908190036020018120805492151560ff19909316929092179091557f8068470e605465e644f90970e74a28f3ab98c829a51dc495da2e35978a5cfe509062000ab2908490620012ff565b60405180910390a15050565b7ff0c57e16840df040f15088dc2f81fe391c3923bec73e23a9662efc9c229c6a008054600160401b810460ff16159067ffffffffffffffff1660008115801562000b055750825b905060008267ffffffffffffffff16600114801562000b235750303b155b90508115801562000b32575080155b1562000b515760405163f92ee8a960e01b815260040160405180910390fd5b845467ffffffffffffffff19166001178555831562000b7c57845460ff60401b1916600160401b1785555b62000b8786620011ad565b831562000bce57845460ff60401b19168555604051600181527fc7f505b2f371ae2175ee4913f4499e1f2633a7b5936321eed1cdaeb6115181d29060200160405180910390a15b505050505050565b6000808460405160200162000bec9190620015be565b60405160208183030381529060405280519060200120905060018560405162000c169190620015be565b9081526040519081900360200190205460ff1662000c705760405162461bcd60e51b8152602060048201526016602482015275141b185d199bdc9b481b9bdd081cdd5c1c1bdc9d195960521b604482015260640162000362565b60008460405160200162000c859190620015be565b60405160208183030381529060405280519060200120905060008460405160200162000cb29190620015be565b60408051601f198184030181529181528151602092830120600086815260028452828120868252909352908220909250905b815481101562000e8457600082828154811062000d055762000d0562001731565b9060005260206000200160009054906101000a90046001600160a01b031690506000806000836001600160a01b0316635a9b0b896040518163ffffffff1660e01b8152600401600060405180830381865afa15801562000d69573d6000803e3d6000fd5b505050506040513d6000823e601f3d908101601f1916820160405262000d93919081019062001793565b50925092509250888360405160200162000dae9190620015be565b6040516020818303038152906040528051906020012014801562000df95750878260405160200162000de19190620015be565b60405160208183030381529060405280519060200120145b801562000e2d5750868160405160200162000e159190620015be565b60405160208183030381529060405280519060200120145b1562000e735760405162461bcd60e51b81526020600482015260146024820152734c6162656c20616c72656164792065786973747360601b604482015260640162000362565b50506001909201915062000ce49050565b5060008888883360405162000e999062001255565b62000ea8949392919062001885565b604051809103906000f08015801562000ec5573d6000803e3d6000fd5b506040516311bf231960e01b81523360048201529091506001600160a01b038216906311bf231990602401600060405180830381600087803b15801562000f0b57600080fd5b505af115801562000f20573d6000803e3d6000fd5b505050600086815260026020908152604080832088845282528083208054600181018255908452919092200180546001600160a01b0319166001600160a01b0385161790555162000f7491508990620015be565b60405180910390208960405162000f8c9190620015be565b6040518091039020336001600160a01b03167fc0546ebba93152587ccf2228c114d2b08d506134f8fa63c18a68384b8ee3c9e58a8560405162000fd192919062001a46565b60405180910390a498975050505050505050565b62000fef620010de565b6001600160a01b0381166200101b57604051631e4fbdf760e01b81526000600482015260240162000362565b62001026816200113c565b50565b600081815481106200103a57600080fd5b9060005260206000200160009150905080546200105790620015dc565b80601f01602080910402602001604051908101604052809291908181526020018280546200108590620015dc565b8015620010d65780601f10620010aa57610100808354040283529160200191620010d6565b820191906000526020600020905b815481529060010190602001808311620010b857829003601f168201915b505050505081565b33620011117f9016d09d72d40fdae2fd8ceac6b6234c7706214fd39c1cd1e609a0528c199300546001600160a01b031690565b6001600160a01b031614620002e75760405163118cdaa760e01b815233600482015260240162000362565b7f9016d09d72d40fdae2fd8ceac6b6234c7706214fd39c1cd1e609a0528c19930080546001600160a01b031981166001600160a01b03848116918217845560405192169182907f8be0079c531659141344cd1fd0a4f28419497f9722a3daafe3b4186f6b6457e090600090a3505050565b620011b7620011c2565b62001026816200120c565b7ff0c57e16840df040f15088dc2f81fe391c3923bec73e23a9662efc9c229c6a0054600160401b900460ff16620002e757604051631afcd79f60e31b815260040160405180910390fd5b62000fef620011c2565b5080546200122490620015dc565b6000825580601f1062001235575050565b601f01602090049060005260206000209081019062001026919062001263565b61230f8062001a7383390190565b5b808211156200127a576000815560010162001264565b5090565b6000806000606084860312156200129457600080fd5b505081359360208301359350604090920135919050565b60005b83811015620012c8578181015183820152602001620012ae565b50506000910152565b60008151808452620012eb816020860160208601620012ab565b601f01601f19169290920160200192915050565b602081526000620013146020830184620012d1565b9392505050565b634e487b7160e01b600052604160045260246000fd5b604051601f8201601f1916810167ffffffffffffffff811182821017156200135d576200135d6200131b565b604052919050565b600067ffffffffffffffff8211156200138257620013826200131b565b50601f01601f191660200190565b600082601f830112620013a257600080fd5b8135620013b9620013b38262001365565b62001331565b818152846020838601011115620013cf57600080fd5b816020850160208301376000918101602001919091529392505050565b600060208284031215620013ff57600080fd5b813567ffffffffffffffff8111156200141757600080fd5b620014258482850162001390565b949350505050565b600080604083850312156200144157600080fd5b823567ffffffffffffffff808211156200145a57600080fd5b620014688683870162001390565b935060208501359150808211156200147f57600080fd5b506200148e8582860162001390565b9150509250929050565b6020808252825182820181905260009190848201906040850190845b81811015620014db5783516001600160a01b031683529284019291840191600101620014b4565b50909695505050505050565b600080600060608486031215620014fd57600080fd5b833567ffffffffffffffff808211156200151657600080fd5b620015248783880162001390565b945060208601359150808211156200153b57600080fd5b620015498783880162001390565b935060408601359150808211156200156057600080fd5b506200156f8682870162001390565b9150509250925092565b6000602082840312156200158c57600080fd5b81356001600160a01b03811681146200131457600080fd5b600060208284031215620015b757600080fd5b5035919050565b60008251620015d2818460208701620012ab565b9190910192915050565b600181811c90821680620015f157607f821691505b6020821081036200161257634e487b7160e01b600052602260045260246000fd5b50919050565b601f821115620008a0576000816000526020600020601f850160051c81016020861015620016435750805b601f850160051c820191505b8181101562000bce578281556001016200164f565b815167ffffffffffffffff8111156200168157620016816200131b565b6200169981620016928454620015dc565b8462001618565b602080601f831160018114620016d15760008415620016b85750858301515b600019600386901b1c1916600185901b17855562000bce565b600085815260208120601f198616915b828110156200170257888601518255948401946001909101908401620016e1565b5085821015620017215787850151600019600388901b60f8161c191681555b5050505050600190811b01905550565b634e487b7160e01b600052603260045260246000fd5b600082601f8301126200175957600080fd5b81516200176a620013b38262001365565b8181528460208386010111156200178057600080fd5b62001425826020830160208701620012ab565b60008060008060808587031215620017aa57600080fd5b845167ffffffffffffffff80821115620017c357600080fd5b620017d18883890162001747565b95506020870151915080821115620017e857600080fd5b620017f68883890162001747565b945060408701519150808211156200180d57600080fd5b6200181b8883890162001747565b935060608701519150808211156200183257600080fd5b50620018418782880162001747565b91505092959194509250565b81810381811115620004de57634e487b7160e01b600052601160045260246000fd5b634e487b7160e01b600052603160045260246000fd5b6080815260006200189a6080830187620012d1565b8281036020840152620018ae8187620012d1565b90508281036040840152620018c48186620012d1565b91505060018060a01b038316606083015295945050505050565b6000808354620018ee81620015dc565b600182811680156200190957600181146200191f5762001950565b60ff198416875282151583028701945062001950565b8760005260208060002060005b85811015620019475781548a8201529084019082016200192c565b50505082870194505b50929695505050505050565b81810362001968575050565b620019748254620015dc565b67ffffffffffffffff8111156200198f576200198f6200131b565b620019a081620016928454620015dc565b6000601f821160018114620019d75760008315620019be5750848201545b600019600385901b1c1916600184901b17845562001a3f565b600085815260209020601f19841690600086815260209020845b8381101562001a135782860154825560019586019590910190602001620019f1565b508583101562001a325781850154600019600388901b60f8161c191681555b50505060018360011b0184555b5050505050565b60408152600062001a5b6040830185620012d1565b905060018060a01b0383166020830152939250505056fe60806040523480156200001157600080fd5b506040516200230f3803806200230f83398101604081905262000034916200040b565b808262000040620000e5565b604051602001620000529190620004be565b60408051601f1981840301815291905260006200007083826200057f565b5060016200007f82826200057f565b5050506001600160a01b038116620000b157604051631e4fbdf760e01b81526000600482015260240160405180910390fd5b620000bc8162000169565b50600d620000cb85826200057f565b50600e620000da84826200057f565b505050505062000669565b606060004244336040516020016200011d93929190928352602083019190915260601b6001600160601b031916604082015260540190565b60408051601f19818403018152919052805160209091012090506200014281620001bb565b6040516020016200015491906200064b565b60405160208183030381529060405291505090565b600b80546001600160a01b038381166001600160a01b0319831681179093556040519116919082907f8be0079c531659141344cd1fd0a4f28419497f9722a3daafe3b4186f6b6457e090600090a35050565b60606000620001ca8362000254565b60010190506000816001600160401b03811115620001ec57620001ec6200033e565b6040519080825280601f01601f19166020018201604052801562000217576020820181803683370190505b5090508181016020015b600019016f181899199a1a9b1b9c1cb0b131b232b360811b600a86061a8153600a85049450846200022157509392505050565b6000807a184f03e93ff9f4daa797ed6e38ed64bf6a1f01000000000000000083106200029e577a184f03e93ff9f4daa797ed6e38ed64bf6a1f010000000000000000830492506040015b6d04ee2d6d415b85acef81000000008310620002cb576d04ee2d6d415b85acef8100000000830492506020015b662386f26fc100008310620002ea57662386f26fc10000830492506010015b6305f5e100831062000303576305f5e100830492506008015b61271083106200031857612710830492506004015b606483106200032b576064830492506002015b600a831062000338576001015b92915050565b634e487b7160e01b600052604160045260246000fd5b60005b838110156200037157818101518382015260200162000357565b50506000910152565b600082601f8301126200038c57600080fd5b81516001600160401b0380821115620003a957620003a96200033e565b604051601f8301601f19908116603f01168101908282118183101715620003d457620003d46200033e565b81604052838152866020858801011115620003ee57600080fd5b6200040184602083016020890162000354565b9695505050505050565b600080600080608085870312156200042257600080fd5b84516001600160401b03808211156200043a57600080fd5b62000448888389016200037a565b955060208701519150808211156200045f57600080fd5b6200046d888389016200037a565b945060408701519150808211156200048457600080fd5b5062000493878288016200037a565b606087015190935090506001600160a01b0381168114620004b357600080fd5b939692955090935050565b654c4142454c5f60d01b815260008251620004e181600685016020870162000354565b9190910160060192915050565b600181811c908216806200050357607f821691505b6020821081036200052457634e487b7160e01b600052602260045260246000fd5b50919050565b601f8211156200057a576000816000526020600020601f850160051c81016020861015620005555750805b601f850160051c820191505b81811015620005765782815560010162000561565b5050505b505050565b81516001600160401b038111156200059b576200059b6200033e565b620005b381620005ac8454620004ee565b846200052a565b602080601f831160018114620005eb5760008415620005d25750858301515b600019600386901b1c1916600185901b17855562000576565b600085815260208120601f198616915b828110156200061c57888601518255948401946001909101908401620005fb565b50858210156200063b5787850151600019600388901b60f8161c191681555b5050505050600190811b01905550565b600082516200065f81846020870162000354565b9190910192915050565b611c9680620006796000396000f3fe608060405234801561001057600080fd5b50600436106101a95760003560e01c80635dab2420116100f9578063a22cb46511610097578063d08bb53f11610071578063d08bb53f14610377578063e985e9c51461037f578063f1f24a6e14610392578063f2fde38b146103a557600080fd5b8063a22cb4651461033e578063b88d4fde14610351578063c87b56dd1461036457600080fd5b8063715018a6116100d3578063715018a6146102fd5780638462151c146103055780638da5cb5b1461032557806395d89b411461033657600080fd5b80635dab2420146102cf5780636352211e146102d757806370a08231146102ea57600080fd5b806323b872dd1161016657806342966c681161014057806342966c68146102895780634bde38c81461029c5780634f6ccce7146102a45780635a9b0b89146102b757600080fd5b806323b872dd146102505780632f745c591461026357806342842e0e1461027657600080fd5b806301ffc9a7146101ae57806306fdde03146101d6578063081812fc146101eb578063095ea7b31461021657806311bf23191461022b57806318160ddd1461023e575b600080fd5b6101c16101bc36600461168d565b6103b8565b60405190151581526020015b60405180910390f35b6101de6103fe565b6040516101cd91906116fa565b6101fe6101f936600461170d565b610490565b6040516001600160a01b0390911681526020016101cd565b610229610224366004611742565b6104bb565b005b61022961023936600461176c565b6104ca565b6008545b6040519081526020016101cd565b61022961025e366004611787565b6104d3565b610242610271366004611742565b610563565b610229610284366004611787565b6105c8565b61022961029736600461170d565b6105e8565b6101de6105f4565b6102426102b236600461170d565b610682565b6102bf6106db565b6040516101cd94939291906117c3565b6101de6108a1565b6101fe6102e536600461170d565b6108ae565b6102426102f836600461176c565b6108b9565b610229610901565b61031861031336600461176c565b610915565b6040516101cd919061181b565b600b546001600160a01b03166101fe565b6101de6109ad565b61022961034c36600461185f565b6109bc565b61022961035f366004611927565b6109c7565b6101de61037236600461170d565b6109de565b6101de6109e9565b6101c161038d3660046119a3565b6109f6565b6102296103a03660046119d6565b610a24565b6102296103b336600461176c565b610a38565b60007fb97c06ce1a27418b31f7474f7bf31fc55ebaf5a4de64b614047e62de6d0cb3366001600160e01b031983168114806103f757506103f783610a76565b9392505050565b60606000805461040d90611a1f565b80601f016020809104026020016040519081016040528092919081815260200182805461043990611a1f565b80156104865780601f1061045b57610100808354040283529160200191610486565b820191906000526020600020905b81548152906001019060200180831161046957829003601f168201915b5050505050905090565b600061049b82610a9b565b506000828152600460205260409020546001600160a01b03165b92915050565b6104c6828233610ad4565b5050565b6104c681610ae1565b6001600160a01b03821661050257604051633250574960e11b8152600060048201526024015b60405180910390fd5b600061050f838333610b05565b9050836001600160a01b0316816001600160a01b03161461055d576040516364283d7b60e01b81526001600160a01b03808616600483015260248201849052821660448201526064016104f9565b50505050565b600061056e836108b9565b821061059f5760405163295f44f760e21b81526001600160a01b0384166004820152602481018390526044016104f9565b506001600160a01b03919091166000908152600660209081526040808320938352929052205490565b6105e3838383604051806020016040528060008152506109c7565b505050565b6104c660008233610b05565b600d805461060190611a1f565b80601f016020809104026020016040519081016040528092919081815260200182805461062d90611a1f565b801561067a5780601f1061064f5761010080835404028352916020019161067a565b820191906000526020600020905b81548152906001019060200180831161065d57829003601f168201915b505050505081565b600061068d60085490565b82106106b65760405163295f44f760e21b815260006004820152602481018390526044016104f9565b600882815481106106c9576106c9611a59565b90600052602060002001549050919050565b606080606080600d600e6106ed6103fe565b600f8380546106fb90611a1f565b80601f016020809104026020016040519081016040528092919081815260200182805461072790611a1f565b80156107745780601f1061074957610100808354040283529160200191610774565b820191906000526020600020905b81548152906001019060200180831161075757829003601f168201915b5050505050935082805461078790611a1f565b80601f01602080910402602001604051908101604052809291908181526020018280546107b390611a1f565b80156108005780601f106107d557610100808354040283529160200191610800565b820191906000526020600020905b8154815290600101906020018083116107e357829003601f168201915b5050505050925080805461081390611a1f565b80601f016020809104026020016040519081016040528092919081815260200182805461083f90611a1f565b801561088c5780601f106108615761010080835404028352916020019161088c565b820191906000526020600020905b81548152906001019060200180831161086f57829003601f168201915b50505050509050935093509350935090919293565b600e805461060190611a1f565b60006104b582610a9b565b60006001600160a01b0382166108e5576040516322718ad960e21b8152600060048201526024016104f9565b506001600160a01b031660009081526003602052604090205490565b610909610b1a565b6109136000610b47565b565b60606000610922836108b9565b905060008167ffffffffffffffff81111561093f5761093f61189b565b604051908082528060200260200182016040528015610968578160200160208202803683370190505b50905060005b828110156109a5576109808582610563565b82828151811061099257610992611a59565b602090810291909101015260010161096e565b509392505050565b60606001805461040d90611a1f565b6104c6338383610b99565b6109d28484846104d3565b61055d84848484610c38565b60606104b582610d61565b600f805461060190611a1f565b6001600160a01b03918216600090815260056020908152604080832093909416825291909152205460ff1690565b610a2c610b1a565b600f6104c68282611abf565b610a40610b1a565b6001600160a01b038116610a6a57604051631e4fbdf760e01b8152600060048201526024016104f9565b610a7381610b47565b50565b60006001600160e01b03198216632483248360e11b14806104b557506104b582610e6a565b6000818152600260205260408120546001600160a01b0316806104b557604051637e27328960e01b8152600481018490526024016104f9565b6105e38383836001610e8f565b600c805460009182919082610af583611b95565b9190505590506104b58382610f95565b6000610b12848484610faf565b949350505050565b600b546001600160a01b031633146109135760405163118cdaa760e01b81523360048201526024016104f9565b600b80546001600160a01b038381166001600160a01b0319831681179093556040519116919082907f8be0079c531659141344cd1fd0a4f28419497f9722a3daafe3b4186f6b6457e090600090a35050565b6001600160a01b038216610bcb57604051630b61174360e31b81526001600160a01b03831660048201526024016104f9565b6001600160a01b03838116600081815260056020908152604080832094871680845294825291829020805460ff191686151590811790915591519182527f17307eab39ab6107e8899845ad3d59bd9653f200f220920489ca2b5937696c31910160405180910390a3505050565b6001600160a01b0383163b1561055d57604051630a85bd0160e11b81526001600160a01b0384169063150b7a0290610c7a903390889087908790600401611bae565b6020604051808303816000875af1925050508015610cb5575060408051601f3d908101601f19168201909252610cb291810190611beb565b60015b610d1e573d808015610ce3576040519150601f19603f3d011682016040523d82523d6000602084013e610ce8565b606091505b508051600003610d1657604051633250574960e11b81526001600160a01b03851660048201526024016104f9565b805181602001fd5b6001600160e01b03198116630a85bd0160e11b14610d5a57604051633250574960e11b81526001600160a01b03851660048201526024016104f9565b5050505050565b6060610d6c82610a9b565b506000828152600a602052604081208054610d8690611a1f565b80601f0160208091040260200160405190810160405280929190818152602001828054610db290611a1f565b8015610dff5780601f10610dd457610100808354040283529160200191610dff565b820191906000526020600020905b815481529060010190602001808311610de257829003601f168201915b505050505090506000610e1d60408051602081019091526000815290565b90508051600003610e2f575092915050565b815115610e61578082604051602001610e49929190611c08565b60405160208183030381529060405292505050919050565b610b128461107c565b60006001600160e01b0319821663780e9d6360e01b14806104b557506104b5826110f0565b8080610ea357506001600160a01b03821615155b15610f65576000610eb384610a9b565b90506001600160a01b03831615801590610edf5750826001600160a01b0316816001600160a01b031614155b8015610ef25750610ef081846109f6565b155b15610f1b5760405163a9fbf51f60e01b81526001600160a01b03841660048201526024016104f9565b8115610f635783856001600160a01b0316826001600160a01b03167f8c5be1e5ebec7d5bd14f71427d1e84f3dd0314c0f7b2291e5b200ac8c7c3b92560405160405180910390a45b505b5050600090815260046020526040902080546001600160a01b0319166001600160a01b0392909216919091179055565b6104c6828260405180602001604052806000815250611140565b600080610fbd858585611157565b90506001600160a01b03811661101a5761101584600880546000838152600960205260408120829055600182018355919091527ff3f7a9fe364faab93b216da50a3214154f22a0a2b415b23a84c8169e8b636ee30155565b61103d565b846001600160a01b0316816001600160a01b03161461103d5761103d8185611250565b6001600160a01b03851661105957611054846112e1565b610b12565b846001600160a01b0316816001600160a01b031614610b1257610b128585611390565b606061108782610a9b565b50600061109f60408051602081019091526000815290565b905060008151116110bf57604051806020016040528060008152506103f7565b806110c9846113e0565b6040516020016110da929190611c08565b6040516020818303038152906040529392505050565b60006001600160e01b031982166380ac58cd60e01b148061112157506001600160e01b03198216635b5e139f60e01b145b806104b557506301ffc9a760e01b6001600160e01b03198316146104b5565b61114a8383611473565b6105e36000848484610c38565b6000828152600260205260408120546001600160a01b0390811690831615611184576111848184866114d8565b6001600160a01b038116156111c2576111a1600085600080610e8f565b6001600160a01b038116600090815260036020526040902080546000190190555b6001600160a01b038516156111f1576001600160a01b0385166000908152600360205260409020805460010190555b60008481526002602052604080822080546001600160a01b0319166001600160a01b0389811691821790925591518793918516917fddf252ad1be2c89b69c2b068fc378daa952ba7f163c4a11628f55a4df523b3ef91a4949350505050565b600061125b836108b9565b6000838152600760205260409020549091508082146112ae576001600160a01b03841660009081526006602090815260408083208584528252808320548484528184208190558352600790915290208190555b5060009182526007602090815260408084208490556001600160a01b039094168352600681528383209183525290812055565b6008546000906112f390600190611c37565b6000838152600960205260408120546008805493945090928490811061131b5761131b611a59565b90600052602060002001549050806008838154811061133c5761133c611a59565b600091825260208083209091019290925582815260099091526040808220849055858252812055600880548061137457611374611c4a565b6001900381819060005260206000200160009055905550505050565b6000600161139d846108b9565b6113a79190611c37565b6001600160a01b039093166000908152600660209081526040808320868452825280832085905593825260079052919091209190915550565b606060006113ed8361153c565b600101905060008167ffffffffffffffff81111561140d5761140d61189b565b6040519080825280601f01601f191660200182016040528015611437576020820181803683370190505b5090508181016020015b600019016f181899199a1a9b1b9c1cb0b131b232b360811b600a86061a8153600a850494508461144157509392505050565b6001600160a01b03821661149d57604051633250574960e11b8152600060048201526024016104f9565b60006114ab83836000610b05565b90506001600160a01b038116156105e3576040516339e3563760e11b8152600060048201526024016104f9565b6114e3838383611614565b6105e3576001600160a01b03831661151157604051637e27328960e01b8152600481018290526024016104f9565b60405163177e802f60e01b81526001600160a01b0383166004820152602481018290526044016104f9565b60008072184f03e93ff9f4daa797ed6e38ed64bf6a1f0160401b831061157b5772184f03e93ff9f4daa797ed6e38ed64bf6a1f0160401b830492506040015b6d04ee2d6d415b85acef810000000083106115a7576d04ee2d6d415b85acef8100000000830492506020015b662386f26fc1000083106115c557662386f26fc10000830492506010015b6305f5e10083106115dd576305f5e100830492506008015b61271083106115f157612710830492506004015b60648310611603576064830492506002015b600a83106104b55760010192915050565b60006001600160a01b03831615801590610b125750826001600160a01b0316846001600160a01b0316148061164e575061164e84846109f6565b80610b125750506000908152600460205260409020546001600160a01b03908116911614919050565b6001600160e01b031981168114610a7357600080fd5b60006020828403121561169f57600080fd5b81356103f781611677565b60005b838110156116c55781810151838201526020016116ad565b50506000910152565b600081518084526116e68160208601602086016116aa565b601f01601f19169290920160200192915050565b6020815260006103f760208301846116ce565b60006020828403121561171f57600080fd5b5035919050565b80356001600160a01b038116811461173d57600080fd5b919050565b6000806040838503121561175557600080fd5b61175e83611726565b946020939093013593505050565b60006020828403121561177e57600080fd5b6103f782611726565b60008060006060848603121561179c57600080fd5b6117a584611726565b92506117b360208501611726565b9150604084013590509250925092565b6080815260006117d660808301876116ce565b82810360208401526117e881876116ce565b905082810360408401526117fc81866116ce565b9050828103606084015261181081856116ce565b979650505050505050565b6020808252825182820181905260009190848201906040850190845b8181101561185357835183529284019291840191600101611837565b50909695505050505050565b6000806040838503121561187257600080fd5b61187b83611726565b91506020830135801515811461189057600080fd5b809150509250929050565b634e487b7160e01b600052604160045260246000fd5b600067ffffffffffffffff808411156118cc576118cc61189b565b604051601f8501601f19908116603f011681019082821181831017156118f4576118f461189b565b8160405280935085815286868601111561190d57600080fd5b858560208301376000602087830101525050509392505050565b6000806000806080858703121561193d57600080fd5b61194685611726565b935061195460208601611726565b925060408501359150606085013567ffffffffffffffff81111561197757600080fd5b8501601f8101871361198857600080fd5b611997878235602084016118b1565b91505092959194509250565b600080604083850312156119b657600080fd5b6119bf83611726565b91506119cd60208401611726565b90509250929050565b6000602082840312156119e857600080fd5b813567ffffffffffffffff8111156119ff57600080fd5b8201601f81018413611a1057600080fd5b610b12848235602084016118b1565b600181811c90821680611a3357607f821691505b602082108103611a5357634e487b7160e01b600052602260045260246000fd5b50919050565b634e487b7160e01b600052603260045260246000fd5b601f8211156105e3576000816000526020600020601f850160051c81016020861015611a985750805b601f850160051c820191505b81811015611ab757828155600101611aa4565b505050505050565b815167ffffffffffffffff811115611ad957611ad961189b565b611aed81611ae78454611a1f565b84611a6f565b602080601f831160018114611b225760008415611b0a5750858301515b600019600386901b1c1916600185901b178555611ab7565b600085815260208120601f198616915b82811015611b5157888601518255948401946001909101908401611b32565b5085821015611b6f5787850151600019600388901b60f8161c191681555b5050505050600190811b01905550565b634e487b7160e01b600052601160045260246000fd5b600060018201611ba757611ba7611b7f565b5060010190565b6001600160a01b0385811682528416602082015260408101839052608060608201819052600090611be1908301846116ce565b9695505050505050565b600060208284031215611bfd57600080fd5b81516103f781611677565b60008351611c1a8184602088016116aa565b835190830190611c2e8183602088016116aa565b01949350505050565b818103818111156104b5576104b5611b7f565b634e487b7160e01b600052603160045260246000fdfea264697066735822122006c2b9e7b041e8c6aaff36add5fc669e3bc8b3199f00165600991958894aba7564736f6c63430008180033a26469706673582212204a8e038022372482ee114af695646058d7e07b55a071a099b78caa51e3654f8c64736f6c63430008180033",
  "linkReferences": {},
  "deployedLinkReferences": {}
}